S00B0000726F6D2E73726563CB
S11300000C9446000C9463000C9463000C946300FD
S11300100C9463000C9463000C9463000C946300D0
S11300200C9463000C9463000C9463000C946300C0
S11300300C9463000C9463000C9463000C946300B0
S11300400C9463000C9463000C9463000C946300A0
S11300500C9463000C9463000C9463000C94630090
S11300600C9463000C9463000C9463000C94630080
S11300700C9463000C9463000C9463000C94630070
S11300800C9463000C9463000C94630011241FBE51
S1130090CFEFD0E1DEBFCDBF11E0A0E0B1E0ECE6F0
S11300A0F1E000E00BBF02C007900D92A030B10751
S11300B0D9F711E0A0E0B1E001C01D92A030B10772
S11300C0E1F70C9480000C94000020E030E002C0C2
S11300D02F5F3F4F28173907DCF3089540E050E0C5
S11300E007C028EE33E021503040E9F74F5F5F4FFF
S11300F048175907B4F308958FEF81BB82BB089565
S1130100CFEFD0E1DEBFCDBF8FEF81BB82BB23E059
S113011081E090E0A0E0B0E0FC01A0935B002093BC
S11301206800E89540E050E060E070E080E090E036
S11301300E94007F84E690E00E946E0082B3809566
S113014082BBF8CF3FB723E0FB0180935B00209391
S11301506800E8958091680080FDFCCF81E1809380
S10F01606800E8953FBF80E090E008953F
S113FE00DF92EF92FF920F931F93CF93DF937B01C7
S113FE108C01DA01DFB6F894E199FECF83E0F701B3
S113FE2000935B0080936800E8958091680080FDF2
S113FE30FCCFB801A701C0E8D0E031E02C91FD016E
S113FE40818112969927982F8827820F911D0C0182
S113FE50FA0160935B0030936800E89511242197C0
S113FE604E5F5F4F6F4F7F4F209741F785E0F7015B
S113FE7000935B0080936800E8958091680080FDA2
S113FE80FCCF81E180936800E895DFBE7894DF9130
S111FE90CF911F910F91FF90EF90DF90089596
S9030000FC
